{
  "contractName": "HiveSale",
  "abi": [
    {
      "constant": true,
      "inputs": [],
      "name": "fourthBonusTime",
      "outputs": [
        {
          "name": "",
          "type": "uint256"
        }
      ],
      "payable": false,
      "stateMutability": "view",
      "type": "function"
    },
    {
      "constant": true,
      "inputs": [],
      "name": "secondBonusTime",
      "outputs": [
        {
          "name": "",
          "type": "uint256"
        }
      ],
      "payable": false,
      "stateMutability": "view",
      "type": "function"
    },
    {
      "constant": true,
      "inputs": [],
      "name": "weiRaised",
      "outputs": [
        {
          "name": "",
          "type": "uint256"
        }
      ],
      "payable": false,
      "stateMutability": "view",
      "type": "function"
    },
    {
      "constant": true,
      "inputs": [],
      "name": "closingTime",
      "outputs": [
        {
          "name": "",
          "type": "uint256"
        }
      ],
      "payable": false,
      "stateMutability": "view",
      "type": "function"
    },
    {
      "constant": true,
      "inputs": [],
      "name": "wallet",
      "outputs": [
        {
          "name": "",
          "type": "address"
        }
      ],
      "payable": false,
      "stateMutability": "view",
      "type": "function"
    },
    {
      "constant": true,
      "inputs": [],
      "name": "paused",
      "outputs": [
        {
          "name": "",
          "type": "bool"
        }
      ],
      "payable": false,
      "stateMutability": "view",
      "type": "function"
    },
    {
      "constant": true,
      "inputs": [],
      "name": "owner",
      "outputs": [
        {
          "name": "",
          "type": "address"
        }
      ],
      "payable": false,
      "stateMutability": "view",
      "type": "function"
    },
    {
      "constant": true,
      "inputs": [],
      "name": "openingTime",
      "outputs": [
        {
          "name": "",
          "type": "uint256"
        }
      ],
      "payable": false,
      "stateMutability": "view",
      "type": "function"
    },
    {
      "constant": true,
      "inputs": [],
      "name": "thirdBonusTime",
      "outputs": [
        {
          "name": "",
          "type": "uint256"
        }
      ],
      "payable": false,
      "stateMutability": "view",
      "type": "function"
    },
    {
      "constant": true,
      "inputs": [],
      "name": "hivePerEther",
      "outputs": [
        {
          "name": "",
          "type": "uint256"
        }
      ],
      "payable": false,
      "stateMutability": "view",
      "type": "function"
    },
    {
      "constant": true,
      "inputs": [],
      "name": "hivePerUSD",
      "outputs": [
        {
          "name": "",
          "type": "uint256"
        }
      ],
      "payable": false,
      "stateMutability": "view",
      "type": "function"
    },
    {
      "constant": true,
      "inputs": [],
      "name": "firstBonusTime",
      "outputs": [
        {
          "name": "",
          "type": "uint256"
        }
      ],
      "payable": false,
      "stateMutability": "view",
      "type": "function"
    },
    {
      "constant": true,
      "inputs": [],
      "name": "token",
      "outputs": [
        {
          "name": "",
          "type": "address"
        }
      ],
      "payable": false,
      "stateMutability": "view",
      "type": "function"
    },
    {
      "inputs": [
        {
          "name": "_hivePerEther",
          "type": "uint256"
        },
        {
          "name": "_wallet",
          "type": "address"
        },
        {
          "name": "_token",
          "type": "address"
        },
        {
          "name": "_openingTime",
          "type": "uint256"
        },
        {
          "name": "_closingTime",
          "type": "uint256"
        }
      ],
      "payable": false,
      "stateMutability": "nonpayable",
      "type": "constructor"
    },
    {
      "payable": true,
      "stateMutability": "payable",
      "type": "fallback"
    },
    {
      "anonymous": false,
      "inputs": [
        {
          "indexed": true,
          "name": "purchaser",
          "type": "address"
        },
        {
          "indexed": true,
          "name": "beneficiary",
          "type": "address"
        },
        {
          "indexed": false,
          "name": "value",
          "type": "uint256"
        },
        {
          "indexed": false,
          "name": "amount",
          "type": "uint256"
        }
      ],
      "name": "TokenPurchase",
      "type": "event"
    },
    {
      "constant": true,
      "inputs": [],
      "name": "hasClosed",
      "outputs": [
        {
          "name": "",
          "type": "bool"
        }
      ],
      "payable": false,
      "stateMutability": "view",
      "type": "function"
    },
    {
      "constant": false,
      "inputs": [
        {
          "name": "_beneficiary",
          "type": "address"
        }
      ],
      "name": "buyTokens",
      "outputs": [],
      "payable": true,
      "stateMutability": "payable",
      "type": "function"
    },
    {
      "constant": false,
      "inputs": [
        {
          "name": "_newRate",
          "type": "uint256"
        }
      ],
      "name": "changeRate",
      "outputs": [],
      "payable": false,
      "stateMutability": "nonpayable",
      "type": "function"
    },
    {
      "constant": false,
      "inputs": [
        {
          "name": "_newClosingTime",
          "type": "uint256"
        }
      ],
      "name": "extendSale",
      "outputs": [],
      "payable": false,
      "stateMutability": "nonpayable",
      "type": "function"
    },
    {
      "constant": false,
      "inputs": [],
      "name": "haltSale",
      "outputs": [],
      "payable": false,
      "stateMutability": "nonpayable",
      "type": "function"
    },
    {
      "constant": false,
      "inputs": [],
      "name": "resumeSale",
      "outputs": [],
      "payable": false,
      "stateMutability": "nonpayable",
      "type": "function"
    },
    {
      "constant": false,
      "inputs": [
        {
          "name": "_beneficiary",
          "type": "address"
        },
        {
          "name": "totalTokens",
          "type": "uint256"
        }
      ],
      "name": "forwardTokens",
      "outputs": [],
      "payable": false,
      "stateMutability": "nonpayable",
      "type": "function"
    },
    {
      "constant": false,
      "inputs": [
        {
          "name": "_newOwner",
          "type": "address"
        }
      ],
      "name": "changeOwner",
      "outputs": [],
      "payable": false,
      "stateMutability": "nonpayable",
      "type": "function"
    },
    {
      "constant": false,
      "inputs": [
        {
          "name": "_newWallet",
          "type": "address"
        }
      ],
      "name": "changeWallet",
      "outputs": [],
      "payable": false,
      "stateMutability": "nonpayable",
      "type": "function"
    },
    {
      "constant": false,
      "inputs": [],
      "name": "withdrawUnsoldTokens",
      "outputs": [],
      "payable": false,
      "stateMutability": "nonpayable",
      "type": "function"
    },
    {
      "constant": true,
      "inputs": [
        {
          "name": "timestamp",
          "type": "uint256"
        }
      ],
      "name": "getTimeBonus",
      "outputs": [
        {
          "name": "",
          "type": "uint256"
        }
      ],
      "payable": false,
      "stateMutability": "view",
      "type": "function"
    },
    {
      "constant": true,
      "inputs": [
        {
          "name": "usd",
          "type": "uint256"
        }
      ],
      "name": "getUSDBonus",
      "outputs": [
        {
          "name": "",
          "type": "uint256"
        }
      ],
      "payable": false,
      "stateMutability": "view",
      "type": "function"
    }
  ],
  "bytecode": "0x6060604052341561000f57600080fd5b60405160a0806116808339810160405280805190602001909190805190602001909190805190602001909190805190602001909190805190602001909190505060008511151561005e57600080fd5b600073ffffffffffffffffffffffffffffffffffffffff168473ffffffffffffffffffffffffffffffffffffffff161415151561009a57600080fd5b600073ffffffffffffffffffffffffffffffffffffffff168373ffffffffffffffffffffffffffffffffffffffff16141515156100d657600080fd5b4282101515156100e557600080fd5b8181101515156100f457600080fd5b8460028190555083600160006101000a81548173ffffffffffffffffffffffffffffffffffffffff021916908373ffffffffffffffffffffffffffffffffffffffff160217905550826000806101000a81548173ffffffffffffffffffffffffffffffffffffffff021916908373ffffffffffffffffffffffffffffffffffffffff16021790555033600460006101000a81548173ffffffffffffffffffffffffffffffffffffffff021916908373ffffffffffffffffffffffffffffffffffffffff16021790555081600681905550806007819055506000600460146101000a81548160ff02191690831515021790555061014d600381905550635acd4fff600881905550635ae1167f600981905550635af4dcff600a81905550505050505061145c806102246000396000f300606060405260043610610149576000357c0100000000000000000000000000000000000000000000000000000000900463ffffffff16806304084f4c146101545780631515bc2b1461017d5780631ca2a9d7146101aa5780631f1886e4146101e157806333e364cb14610204578063342211b4146102195780634042b66f1461024257806345e0e4121461026b5780634b6753bc146102ad578063521eb273146102d65780635c975abb1461032b5780635fbaa3901461035857806374e7493b1461036d5780638da5cb5b1461039057806398b9a2dc146103e5578063a6f9dae11461041e578063b7a8807c14610457578063c318236014610480578063c8bdbfb6146104b7578063cb709f08146104cc578063d22b32e9146104f5578063ec8ac4d81461051e578063f8742a141461054c578063fa0bcc0b14610575578063fc0c546a1461059e575b610152336105f3565b005b341561015f57600080fd5b610167610708565b6040518082815260200191505060405180910390f35b341561018857600080fd5b61019061070e565b604051808215151515815260200191505060405180910390f35b34156101b557600080fd5b6101cb600480803590602001909190505061071a565b6040518082815260200191505060405180910390f35b34156101ec57600080fd5b6102026004808035906020019091905050610794565b005b341561020f57600080fd5b61021761080a565b005b341561022457600080fd5b61022c610883565b6040518082815260200191505060405180910390f35b341561024d57600080fd5b610255610889565b6040518082815260200191505060405180910390f35b341561027657600080fd5b6102ab600480803573ffffffffffffffffffffffffffffffffffffffff1690602001909190803590602001909190505061088f565b005b34156102b857600080fd5b6102c0610941565b6040518082815260200191505060405180910390f35b34156102e157600080fd5b6102e9610947565b604051808273ffffffffffffffffffffffffffffffffffffffff1673ffffffffffffffffffffffffffffffffffffffff16815260200191505060405180910390f35b341561033657600080fd5b61033e61096d565b604051808215151515815260200191505060405180910390f35b341561036357600080fd5b61036b610980565b005b341561037857600080fd5b61038e60048080359060200190919050506109f9565b005b341561039b57600080fd5b6103a3610a6e565b604051808273ffffffffffffffffffffffffffffffffffffffff1673ffffffffffffffffffffffffffffffffffffffff16815260200191505060405180910390f35b34156103f057600080fd5b61041c600480803573ffffffffffffffffffffffffffffffffffffffff16906020019091905050610a94565b005b341561042957600080fd5b610455600480803573ffffffffffffffffffffffffffffffffffffffff16906020019091905050610b70565b005b341561046257600080fd5b61046a610c4c565b6040518082815260200191505060405180910390f35b341561048b57600080fd5b6104a16004808035906020019091905050610c52565b6040518082815260200191505060405180910390f35b34156104c257600080fd5b6104ca610cb4565b005b34156104d757600080fd5b6104df610f00565b6040518082815260200191505060405180910390f35b341561050057600080fd5b610508610f06565b6040518082815260200191505060405180910390f35b61054a600480803573ffffffffffffffffffffffffffffffffffffffff169060200190919050506105f3565b005b341561055757600080fd5b61055f610f0c565b6040518082815260200191505060405180910390f35b341561058057600080fd5b610588610f12565b6040518082815260200191505060405180910390f35b34156105a957600080fd5b6105b1610f18565b604051808273ffffffffffffffffffffffffffffffffffffffff1673ffffffffffffffffffffffffffffffffffffffff16815260200191505060405180910390f35b600080600654421015801561060a57506007544211155b8015610629575060001515600460149054906101000a900460ff161515145b151561063457600080fd5b3491506106418383610f3d565b61064a82610fc9565b90506106558161103e565b61066a82600c5461113490919063ffffffff16565b600c8190555061067a8382611152565b8273ffffffffffffffffffffffffffffffffffffffff163373ffffffffffffffffffffffffffffffffffffffff167f623b3804fa71d67900d064613da8f94b9617215ee90799290593e1745087ad188484604051808381526020018281526020019250505060405180910390a36106f18383611160565b6106f9611164565b61070383836111c8565b505050565b600b5481565b60006007544211905090565b60006207a12082101515610731576014905061078f565b6207a120821080156107465750620186a08210155b1561075457600a905061078f565b620186a08210801561076857506161a88210155b15610776576005905061078f565b6113888210151561078a576002905061078f565b600090505b919050565b600460009054906101000a900473ffffffffffffffffffffffffffffffffffffffff1673ffffffffffffffffffffffffffffffffffffffff163373ffffffffffffffffffffffffffffffffffffffff161415156107f057600080fd5b6007548111151561080057600080fd5b8060078190555050565b600460009054906101000a900473ffffffffffffffffffffffffffffffffffffffff1673ffffffffffffffffffffffffffffffffffffffff163373ffffffffffffffffffffffffffffffffffffffff1614151561086657600080fd5b6000600460146101000a81548160ff021916908315150217905550565b60095481565b600c5481565b600460009054906101000a900473ffffffffffffffffffffffffffffffffffffffff1673ffffffffffffffffffffffffffffffffffffffff163373ffffffffffffffffffffffffffffffffffffffff161415156108eb57600080fd5b60065442101580156108ff57506007544211155b801561091e575060001515600460149054906101000a900460ff161515145b151561092957600080fd5b6109338282610f3d565b61093d82826111cc565b5050565b60075481565b600160009054906101000a900473ffffffffffffffffffffffffffffffffffffffff1681565b600460149054906101000a900460ff1681565b600460009054906101000a900473ffffffffffffffffffffffffffffffffffffffff1673ffffffffffffffffffffffffffffffffffffffff163373ffffffffffffffffffffffffffffffffffffffff161415156109dc57600080fd5b6001600460146101000a81548160ff021916908315150217905550565b600460009054906101000a900473ffffffffffffffffffffffffffffffffffffffff1673ffffffffffffffffffffffffffffffffffffffff163373ffffffffffffffffffffffffffffffffffffffff16141515610a5557600080fd5b600081111515610a6457600080fd5b8060028190555050565b600460009054906101000a900473ffffffffffffffffffffffffffffffffffffffff1681565b600460009054906101000a900473ffffffffffffffffffffffffffffffffffffffff1673ffffffffffffffffffffffffffffffffffffffff163373ffffffffffffffffffffffffffffffffffffffff16141515610af057600080fd5b600073ffffffffffffffffffffffffffffffffffffffff168173ffffffffffffffffffffffffffffffffffffffff1614151515610b2c57600080fd5b80600160006101000a81548173ffffffffffffffffffffffffffffffffffffffff021916908373ffffffffffffffffffffffffffffffffffffffff16021790555050565b600460009054906101000a900473ffffffffffffffffffffffffffffffffffffffff1673ffffffffffffffffffffffffffffffffffffffff163373ffffffffffffffffffffffffffffffffffffffff16141515610bcc57600080fd5b600073ffffffffffffffffffffffffffffffffffffffff168173ffffffffffffffffffffffffffffffffffffffff1614151515610c0857600080fd5b80600460006101000a81548173ffffffffffffffffffffffffffffffffffffffff021916908373ffffffffffffffffffffffffffffffffffffffff16021790555050565b60065481565b600060085482111515610c685760149050610caf565b60085482118015610c7b57506009548211155b15610c8957600f9050610caf565b60095482118015610c9c5750600a548211155b15610caa57600a9050610caf565b600590505b919050565b6000600460009054906101000a900473ffffffffffffffffffffffffffffffffffffffff1673ffffffffffffffffffffffffffffffffffffffff163373ffffffffffffffffffffffffffffffffffffffff16141515610d1257600080fd5b6000809054906101000a900473ffffffffffffffffffffffffffffffffffffffff1673ffffffffffffffffffffffffffffffffffffffff166370a08231306000604051602001526040518263ffffffff167c0100000000000000000000000000000000000000000000000000000000028152600401808273ffffffffffffffffffffffffffffffffffffffff1673ffffffffffffffffffffffffffffffffffffffff168152602001915050602060405180830381600087803b1515610dd657600080fd5b6102c65a03f11515610de757600080fd5b5050506040518051905090506000809054906101000a900473ffffffffffffffffffffffffffffffffffffffff1673ffffffffffffffffffffffffffffffffffffffff1663a9059cbb600460009054906101000a900473ffffffffffffffffffffffffffffffffffffffff16836000604051602001526040518363ffffffff167c0100000000000000000000000000000000000000000000000000000000028152600401808373ffffffffffffffffffffffffffffffffffffffff1673ffffffffffffffffffffffffffffffffffffffff16815260200182815260200192505050602060405180830381600087803b1515610ee157600080fd5b6102c65a03f11515610ef257600080fd5b505050604051805190505050565b600a5481565b60025481565b60035481565b60085481565b6000809054906101000a900473ffffffffffffffffffffffffffffffffffffffff1681565b60001515610f4961070e565b1515141515610f5757600080fd5b60001515600460149054906101000a900460ff161515141515610f7957600080fd5b600073ffffffffffffffffffffffffffffffffffffffff168273ffffffffffffffffffffffffffffffffffffffff1614151515610fb557600080fd5b60008114151515610fc557600080fd5b5050565b600080600080670de0b6b3a7640000610fed600254876112c290919063ffffffff16565b811515610ff657fe5b049250611002836112f5565b915061100d8361132c565b905061103481611026848661113490919063ffffffff16565b61113490919063ffffffff16565b9350505050919050565b60008060009054906101000a900473ffffffffffffffffffffffffffffffffffffffff1673ffffffffffffffffffffffffffffffffffffffff166370a08231306000604051602001526040518263ffffffff167c0100000000000000000000000000000000000000000000000000000000028152600401808273ffffffffffffffffffffffffffffffffffffffff1673ffffffffffffffffffffffffffffffffffffffff168152602001915050602060405180830381600087803b151561110457600080fd5b6102c65a03f1151561111557600080fd5b50505060405180519050905081811015151561113057600080fd5b5050565b600080828401905083811015151561114857fe5b8091505092915050565b61115c82826111cc565b5050565b5050565b600160009054906101000a900473ffffffffffffffffffffffffffffffffffffffff1673ffffffffffffffffffffffffffffffffffffffff166108fc349081150290604051600060405180830381858888f1935050505015156111c657600080fd5b565b5050565b6000809054906101000a900473ffffffffffffffffffffffffffffffffffffffff1673ffffffffffffffffffffffffffffffffffffffff1663a9059cbb83836000604051602001526040518363ffffffff167c0100000000000000000000000000000000000000000000000000000000028152600401808373ffffffffffffffffffffffffffffffffffffffff1673ffffffffffffffffffffffffffffffffffffffff16815260200182815260200192505050602060405180830381600087803b151561129857600080fd5b6102c65a03f115156112a957600080fd5b50505060405180519050506112be828261137c565b5050565b600080828402905060008414806112e357508284828115156112e057fe5b04145b15156112eb57fe5b8091505092915050565b600061132561130342610c52565b61131760648561141590919063ffffffff16565b6112c290919063ffffffff16565b9050919050565b6000806113446003548461141590919063ffffffff16565b90506113746113528261071a565b61136660648661141590919063ffffffff16565b6112c290919063ffffffff16565b915050919050565b6113ce81600560008573ffffffffffffffffffffffffffffffffffffffff1673ffffffffffffffffffffffffffffffffffffffff1681526020019081526020016000205461113490919063ffffffff16565b600560008473ffffffffffffffffffffffffffffffffffffffff1673ffffffffffffffffffffffffffffffffffffffff168152602001908152602001600020819055505050565b600080828481151561142357fe5b04905080915050929150505600a165627a7a723058206580d4802b8c0476b6f1e321a87b79bdf47f463d65b5af2dd045aee0c82043bb0029",
  "source": "pragma solidity ^0.4.18;\r\n\r\nimport \"../SafeMath.sol\";\r\nimport \"../Hive.sol\";\r\n\r\ncontract HiveSale {\r\n\r\n    using SafeMath for uint256;\r\n    // The token being sold\r\n    Hive public token;\r\n\r\n    // Address where funds are collected\r\n    address public wallet;\r\n\r\n    // How many token units a buyer gets per wei\r\n    uint256 public hivePerEther;\r\n\r\n    // How much hive cost per USD\r\n    uint256 public hivePerUSD;\r\n\r\n    // Owner of this contract\r\n    address public owner;\r\n\r\n    //Flag paused sale\r\n    bool public paused;\r\n\r\n    mapping(address => uint256) transfers;\r\n\r\n\r\n    uint256 public openingTime;\r\n    uint256 public closingTime;\r\n\r\n\r\n    uint256 public firstBonusTime;\r\n    uint256 public secondBonusTime;\r\n    uint256 public thirdBonusTime;\r\n    uint256 public fourthBonusTime;   \r\n\r\n    /**\r\n    * @dev Reverts if not in crowdsale time range. \r\n    */\r\n    modifier onlyWhileOpen {\r\n        require(now >= openingTime && now <= closingTime && paused == false);\r\n        _;\r\n    }\r\n\r\n    // Functions with this modifier can only be executed by the owner\r\n    modifier onlyOwner() {\r\n        require(msg.sender == owner);\r\n        _;\r\n    }\r\n\r\n    function HiveSale(uint256 _hivePerEther, address _wallet, Hive _token, uint256 _openingTime, uint256 _closingTime) public {\r\n        require(_hivePerEther > 0);\r\n        require(_wallet != address(0));\r\n        require(_token != address(0));\r\n        require(_openingTime >= now);\r\n        require(_closingTime >= _openingTime);\r\n       \r\n        hivePerEther = _hivePerEther;\r\n        wallet = _wallet;\r\n        token = _token;\r\n        owner = msg.sender;\r\n        openingTime = _openingTime;\r\n        closingTime = _closingTime;\r\n        paused = false;\r\n        hivePerUSD = 333; //each hive is 0.003$\r\n\r\n        firstBonusTime = 1523404799; // April 10 2018. 23:59:59\r\n        secondBonusTime = 1524700799; // April 25 2018. 23:59:59\r\n        thirdBonusTime = 1525996799; // May 10 2018. 23:59:59\r\n    }\r\n\r\n    function () external payable {\r\n        buyTokens(msg.sender);\r\n    }\r\n\r\n    // Amount of wei raised\r\n    uint256 public weiRaised;\r\n    \r\n    /**\r\n    * Event for token purchase logging\r\n    * @param purchaser who paid for the tokens\r\n    * @param beneficiary who got the tokens\r\n    * @param value weis paid for purchase\r\n    * @param amount amount of tokens purchased\r\n    */\r\n    event TokenPurchase(address indexed purchaser, address indexed beneficiary, uint256 value, uint256 amount);\r\n\r\n    /**\r\n    * @dev Checks whether the period in which the crowdsale is open has already elapsed.\r\n    * @return Whether crowdsale period has elapsed\r\n    */\r\n    function hasClosed() public view returns (bool) {\r\n        return now > closingTime;\r\n    }\r\n\r\n\r\n    /**\r\n    * @dev low level token purchase ***DO NOT OVERRIDE***\r\n    * @param _beneficiary Address performing the token purchase\r\n    */\r\n    function buyTokens(address _beneficiary) public payable onlyWhileOpen {\r\n\r\n        uint256 weiAmount = msg.value;\r\n        _preValidatePurchase(_beneficiary, weiAmount);\r\n\r\n        // calculate token amount to be created\r\n        uint256 tokens = _getTokenAmount(weiAmount);\r\n        _verifyAvailability(tokens);\r\n\r\n        // update state\r\n        weiRaised = weiRaised.add(weiAmount);\r\n\r\n        _processPurchase(_beneficiary, tokens);\r\n        TokenPurchase(msg.sender, _beneficiary, weiAmount, tokens);\r\n\r\n        _updatePurchasingState(_beneficiary, weiAmount);\r\n\r\n        _forwardFunds();\r\n        _postValidatePurchase(_beneficiary, weiAmount);\r\n    }\r\n\r\n    function changeRate(uint256 _newRate) onlyOwner public {\r\n        require(_newRate > 0);\r\n        hivePerEther = _newRate;\r\n    }\r\n\r\n    function extendSale(uint256 _newClosingTime) onlyOwner public {\r\n        require(_newClosingTime > closingTime);\r\n        closingTime = _newClosingTime;\r\n    }\r\n\r\n    function haltSale() onlyOwner public {\r\n        paused = true;\r\n    }\r\n\r\n    function resumeSale() onlyOwner public {\r\n        paused = false;\r\n    }\r\n\r\n    //Called from outside to auto handle BTC and FIAT purchases\r\n    function forwardTokens(address _beneficiary, uint256 totalTokens) onlyOwner onlyWhileOpen public {\r\n        _preValidatePurchase(_beneficiary, totalTokens);\r\n        _deliverTokens(_beneficiary, totalTokens);\r\n    }\r\n\r\n    function changeOwner(address _newOwner) onlyOwner public {\r\n        require(_newOwner != address(0));\r\n        owner = _newOwner;\r\n    }\r\n\r\n    function changeWallet(address _newWallet) onlyOwner public {\r\n        require(_newWallet != address(0));\r\n        wallet = _newWallet;\r\n    }\r\n\r\n    //Called after the sale ends to withdraw remaining unsold tokens\r\n    function withdrawUnsoldTokens() onlyOwner public {    \r\n        uint256 unsold = token.balanceOf(this);\r\n        token.transfer(owner, unsold);\r\n    }\r\n\r\n    // -----------------------------------------\r\n    // Internal interface (extensible)\r\n    // -----------------------------------------\r\n\r\n    /**\r\n    * @dev Validation of an incoming purchase. Use require statemens to revert state when conditions are not met. Use super to concatenate validations.\r\n    * @param _beneficiary Address performing the token purchase\r\n    * @param _weiAmount Value in wei involved in the purchase\r\n    */\r\n    function _preValidatePurchase(address _beneficiary, uint256 _weiAmount) internal {\r\n        require(hasClosed() == false);\r\n        require(paused == false);\r\n        require(_beneficiary != address(0));\r\n        require(_weiAmount != 0);\r\n    }\r\n\r\n    /**\r\n    * @dev Validation of an executed purchase. Observe state and use revert statements to undo rollback when valid conditions are not met.\r\n    * @param _beneficiary Address performing the token purchase\r\n    * @param _weiAmount Value in wei involved in the purchase\r\n    */\r\n    function _postValidatePurchase(address _beneficiary, uint256 _weiAmount) internal {\r\n        // optional override\r\n    }\r\n\r\n    /**\r\n    * @dev Source of tokens. Override this method to modify the way in which the crowdsale ultimately gets and sends its tokens.\r\n    * @param _beneficiary Address performing the token purchase\r\n    * @param _tokenAmount Number of tokens to be emitted\r\n    */\r\n    function _deliverTokens(address _beneficiary, uint256 _tokenAmount) internal {\r\n        token.transfer(_beneficiary, _tokenAmount);\r\n        _updateTransfer(_beneficiary, _tokenAmount);\r\n    }\r\n\r\n    /**\r\n    * @dev Executed when a purchase has been validated and is ready to be executed. Not necessarily emits/sends tokens.\r\n    * @param _beneficiary Address receiving the tokens\r\n    * @param _tokenAmount Number of tokens to be purchased\r\n    */\r\n    function _processPurchase(address _beneficiary, uint256 _tokenAmount) internal {\r\n        _deliverTokens(_beneficiary, _tokenAmount);\r\n    }\r\n\r\n    /**\r\n    * @dev Override for extensions that require an internal state to check for validity (current user contributions, etc.)\r\n    * @param _beneficiary Address receiving the tokens\r\n    * @param _weiAmount Value in wei involved in the purchase\r\n    */\r\n    function _updatePurchasingState(address _beneficiary, uint256 _weiAmount) internal {\r\n        // optional override\r\n    }\r\n\r\n    /**\r\n    * @dev Override to extend the way in which ether is converted to tokens.\r\n    * @param _weiAmount Value in wei to be converted into tokens\r\n    * @return Number of tokens that can be purchased with the specified _weiAmount\r\n    */\r\n    function _getTokenAmount(uint256 _weiAmount) internal view returns (uint256) {\r\n        uint256 tokens = _weiAmount.mul(hivePerEther)/(1 ether);                \r\n        uint256 timebonusTokens = _calculateTimeBonus(tokens);\r\n        uint256 weibonusTokens = _calculateUSDBonus(tokens);\r\n        return tokens.add(timebonusTokens).add(weibonusTokens);\r\n    }\r\n\r\n    function _calculateUSDBonus(uint256 _tokensPurchased) internal view returns (uint256) {\r\n            uint256 _usdValue = _tokensPurchased.div(hivePerUSD);\r\n            return _tokensPurchased.div(100).mul(getUSDBonus(_usdValue));\r\n    }\r\n\r\n    function _calculateTimeBonus(uint256 _tokens) internal view returns (uint256) {\r\n            return _tokens.div(100).mul(getTimeBonus(now));\r\n    }\r\n\r\n    function getTimeBonus(uint256 timestamp)\r\n        public\r\n        constant\r\n        returns (uint256)\r\n    {   \r\n        if (timestamp <= firstBonusTime) {\r\n            return 20;  // 20%\r\n        } else if (timestamp > firstBonusTime && timestamp <= secondBonusTime) {\r\n            return 15;  // 15%\r\n        } else if (timestamp > secondBonusTime && timestamp <= thirdBonusTime) {\r\n            return 10;  // 10%\r\n        } else {\r\n            return 5;  // 5%\r\n        }\r\n    }\r\n\r\n    function getUSDBonus(uint256 usd)\r\n        public\r\n        constant\r\n        returns (uint256)\r\n    {   \r\n        if (usd >= 500000) {\r\n            return 20;  // 20%\r\n        } else if (usd < 500000 && usd >= 100000) {\r\n            return 10;  // 10%\r\n        } else if (usd < 100000 && usd >= 25000) {\r\n            return 5;  // 5%\r\n        } else if (usd >= 5000) {\r\n            return 2;  // 5%\r\n        } else {\r\n            return 0; //no bonus\r\n        }\r\n    }\r\n\r\n\r\n    /**\r\n    * @dev Determines how ETH is stored/forwarded on purchases.\r\n    */\r\n    function _forwardFunds() internal {\r\n        wallet.transfer(msg.value);\r\n    }\r\n\r\n    function _verifyAvailability(uint256 _requestedAmount) internal {\r\n        uint256 remaining = token.balanceOf(this);\r\n        require(remaining >= _requestedAmount);\r\n    }\r\n\r\n    function _updateTransfer(address _beneficiery, uint256 _tokenAmount) internal {\r\n        transfers[_beneficiery] = transfers[_beneficiery].add(_tokenAmount);\r\n    }\r\n}",
  "sourcePath": "E:\\SVN\\MindHIVE\\UHive\\contracts\\Crowdsale\\HiveSale.sol",
  "compiler": {
    "name": "solc",
    "version": "0.4.19+commit.c4cbbb05.Emscripten.clang"
  },
  "schemaVersion": "1.0.1",
  "updatedAt": "2018-03-06T11:04:44.970Z"
}